:100000000C9434000C9449000C9449000C94490061
:100010000C9449000C9449000C9449000C9449003C
:100020000C9449000C9449000C9449000C9449002C
:100030000C9449000C9449000C9449000C9449001C
:100040000C9449000C9449000C9449000C9449000C
:100050000C9449000C9449000C9449000C944900FC
:100060000C9449000C94490011241FBECFEFD8E036
:10007000DEBFCDBF12E0A0E0B1E0EEECF8E102C0DF
:1000800005900D92A237B107D9F70E944D030C9449
:10009000650C0C94000090E080E0089590E080E012
:1000A00008958FEF9FEF08958FEF9FEF089590E0F1
:1000B00080E0089590E080E008958FEF9FEF08952D
:1000C0008091C00090E0880F892F881F990B892BA1
:1000D000B9F32091C600822F90E0243011F48FEF05
:1000E0009FEF0895CF93DF93EC018E859F85892B39
:1000F00021F40E946000998B888B1F861E86888958
:100100009989DF91CF910895CF93DF93EC018E858C
:100110009F85892B21F40E946000998B888B81E058
:1001200090E09F878E8788899989DF91CF91089584
:10013000CF92DF92EF92FF920F931F93CF93DF93B3
:100140007C016A018B01D0E0C0E0CC15DD0554F4E0
:100150000E9460008F3F980741F0F80181938F0162
:100160002196F3CFF70117861686CE01DF91CF9146
:100170001F910F91FF90EF90DF90CF900895909195
:10018000C00095FFFCCF8093C6000895CF93C62F83
:10019000FC01178616866D3041F06A3019F48DE047
:1001A0000E94BF008C2F0E94BF0081E090E0CF91A1
:1001B0000895CF92DF92EF92FF920F931F93CF9308
:1001C0006B017A01FC01178616868B01C8018C1918
:1001D0009D098E159F0574F4F801C1918F01CD30F2
:1001E000A9F3CA3019F48DE00E94BF008C2F0E9441
:1001F000BF00ECCFC701CF911F910F91FF90EF90FF
:10020000DF90CF900895FB0120813181FC01318383
:10021000208326503109F90120813181BA01820FF2
:10022000931F0C948B08FC01138212821582148296
:1002300017821682118610861386128680E28487C2
:1002400087E191E081939193CF010C948B08FB019E
:1002500020813181FC013183208313821282265058
:100260003109F90120813181BA01820F931F0C9469
:100270008B08FC0115821482178216821186108663
:10028000138612861586148680E286878FE191E0B8
:100290009183808313821282CF0104960C948B0881
:1002A000EF92FF920F931F93CF93DF93EC018B019B
:1002B0007A016E5F7F4F0E942701B8016C5F7F4F0C
:1002C000A701CE0104960E940301F801808191816B
:1002D00099838883868197819D838C83DF91CF91D9
:1002E0001F910F91FF90EF9008950F931F93CF935D
:1002F000DF93EC018B011F821E82198618861B86F4
:100300001A861D861C861F861E8680E2888BAB019E
:100310006DE271E0CE010E942701A8016FE271E059
:10032000CE0104960E94030189E391E099838883BA
:100330008FE391E09D838C83DF91CF911F910F918B
:100340000895FC011382128215821482178216828C
:1003500011861086138612861586148683E491E032
:100360009183808317861686E2ECF0E080818F7798
:10037000808380818F7B808308958091C10084FD7C
:1003800005C08091C10080618093C1008091C1004F
:1003900083FD05C08091C10088608093C1000895ED
:1003A000EF92FF920F931F93CF93DF93EC018B019A
:1003B0007C0186E0E80EF11C6E5F7F4FA701CE0145
:1003C0000E945001F8018081918199838883828500
:1003D00093859D838C83C701DF91CF911F910F91EE
:1003E000FF90EF900C94A1010F931F93CF93DF9395
:1003F000EC01198E188E1B8E1A8E1D8E1C8E1F8E70
:100400001E8E19A218A280E28AA38E010A5F1F4FD6
:10041000A8016DE671E0CE010E9450018DE791E0E8
:100420009983888383E891E09D838C83C801DF9161
:10043000CF911F910F910C94A1019F92AF92BF9207
:10044000CF92DF92EF92FF920F931F93CF93DF93A0
:10045000EC016B01B42EA22E902E8701AC014E5FF1
:100460005F4F6E5F7F4F0E940301F6018081918193
:10047000998388831D821C821F821E82198618869A
:100480001B861A861D861C861F861E8687E891E0BD
:100490009B838A83292D4A2D6B2DCE0140960E9485
:1004A0002C08FE01E759FF4F108231961082C55982
:1004B000DF4F83E290E099838883DF91CF911F9192
:1004C0000F91FF90EF90DF90CF90BF90AF909F90F3
:1004D0000895DF92EF92FF920F931F93CF93DF93D4
:1004E000EC01F62EE42ED22EFC01E359FF4F1182CF
:1004F000108213821282158214821782168211864C
:10050000108680E28287AE014E5F5F4F6FE971E037
:10051000CE010E94030187EA91E0998388831D82BE
:100520001C821F821E82198618861B861A861D86CB
:100530001C861F861E8687E891E09B838A832D2D6B
:100540004E2D6F2DCE0140960E942C08FE01E759DA
:10055000FF4F108231961082C559DF4F83E290E041
:1005600099838883DF91CF911F910F91FF90EF9036
:10057000DF900895CF93DF93CDB7DEB7CF59D10980
:100580000FB6F894DEBF0FBECDBFCE0187589F4F88
:100590000E94F4011092C5008CE08093C400809109
:1005A000C00082608093C0008091C2008F7D8093E4
:1005B000C2008091C2008F7E8093C2008091C200F1
:1005C000877F8093C2008091C1008B7F8093C100A0
:1005D0008091C20084608093C2008091C2008260DA
:1005E0008093C2000E94BD018091000190910101A1
:1005F000A0910201B0910301C456DF4F8883998313
:10060000AA83BB83CC59D0408E0104561F4F26E0ED
:1006100045E064E0CE0101960E946902CE01419658
:100620000E947E08AB961FAEAB97AC961FAEAC9700
:1006300064E071E0CE0101960E94360C09E710E0FB
:100640000C0F1D1F085E1F4FCE0187589F4F0E9441
:10065000150A8F3F980709F480E0EB96EEADFFADE9
:10066000EB9736970190F081E02D29E730E02C0FD1
:100670003D1FE20FF31F2281338123703327232B89
:1006800031F4682FCE0101960E940A0CDDCF70E094
:1006900060E0C8010E94A308D7CF0E94BA020F935E
:1006A0001F93CF93DF93EC01062F142F442359F0AF
:1006B00060E4413039F064E1423021F060E04330E1
:1006C00011F464E5600FCE010E94E107FE01E75AD4
:1006D000FF4F0083C65ADF4F1883DF91CF911F91E0
:1006E0000F9108954F925F926F927F928F929F9297
:1006F000AF92BF92CF92DF92EF92FF920F931F9330
:10070000CF93DF93CDB7DEB760970FB6F894DEBF17
:100710000FBECDBF8C017C0189E5E80EF11CF7010D
:1007200040803801FAE56F0E711CF301508060E4DF
:10073000C8010E94E107F701108281E0F301808384
:10074000CE0101966C014E0191E1890E911C56017A
:10075000C8010E940208F50181935F018E169F0671
:10076000B9F740E060E0C8010E944F03F6016191D3
:100770006F01C8010E94F207AC14BD04B9F760E430
:10078000C8010E94E107F701108281E0F301808334
:1007900080E1D82E60E2C8010E94F207DA94D110FD
:1007A000F9CFF7014082F301508260960FB6F894BA
:1007B000DEBF0FBECDBFDF91CF911F910F91FF9094
:1007C000EF90DF90CF90BF90AF909F908F907F90F1
:1007D0006F905F904F9008950F931F93CF93DF9387
:1007E0008C01EC01C65ADF4F88818F5F888382308D
:1007F00031F4C8010E947203888181508883488146
:1008000060E0C801DF91CF911F910F910C944F03CD
:100810000F931F93CF93DF93EC018C01025F1F4F67
:10082000C8016A3049F40E94EC0381E090E0DF9156
:10083000CF911F910F9108950E94F207FE01E9598F
:10084000FF4F80818F5F8083803179F7319680817F
:10085000813029F4C759DF4F888184FDE6CFC80174
:10086000E2CF6F927F928F929F92AF92BF92CF9280
:10087000DF92EF92FF920F931F93CF93DF936B0161
:100880007A018B01EC012E965C0127E6A20EB11CC9
:100890003C01E8E66E0E711C4C01F9E68F0E911CCE
:1008A000C8018C199D098E159F05DCF4F801619132
:1008B0008F016A3021F4CE010E94EC03F1CFCE010A
:1008C0000E94F207F50180818F5F8083803141F7BC
:1008D000F3018081813079F7F401808184FFEBCFCF
:1008E000DFCFC701DF91CF911F910F91FF90EF9064
:1008F000DF90CF90BF90AF909F908F907F906F9040
:100900000895FC01608370E0CB01880F991FDC0122
:10091000A250BE4F2D913C9132832183DC01A85C13
:10092000BD4F2D913C91348323838C539E4FDC012A
:100930008D919C919683858369557E4FDB018C91C7
:1009400087830895DC011396ED91FC9114979081B3
:1009500017968C91892B80830895FC01A381B48123
:100960008C919781909598239C93A181B2819C91C1
:100970008781809589238C930895DC011196ED91F0
:10098000FC911297908117968C91892B8083089502
:10099000DC011196ED91FC911297908117968C9144
:1009A000809589238083089561110C94BD040C9473
:1009B000C804FF920F931F93CF93DF93EC018C0138
:1009C000005B1F4FC8010E94AD04CE010E94C80405
:1009D000CE0108960E94BD0400006096CE010E94E0
:1009E000BD04D8011596ED91FC911697808117965C
:1009F0009C918923FF24F394811101C0F12CCE0135
:100A00000E94C804C8010E94A2048F2DDF91CF91DB
:100A10001F910F91FF900895CF92DF92EF92FF9276
:100A20000F931F93CF93DF93EC017C0188E1E80ED5
:100A3000F11C6E0188E5C80ED11C8701C8010E9417
:100A4000AD04085F1F4F0C151D05C1F7CE010E94B4
:100A5000C804CE0108960E94BD0400006E0180E12A
:100A6000C80ED11CC6010E94BD040000C05BDF4F50
:100A7000ED81FE8180819F818923C1E009F4C0E07E
:100A8000C6010E94C804C6010E94BD040000C60140
:100A90000E94C804C7010E94A20488E0E80EF11C6D
:100AA000E016F106B9F78C2FDF91CF911F910F91CE
:100AB000FF90EF90DF90CF9008952F923F925F923A
:100AC0006F927F928F929F92AF92BF92CF92DF925E
:100AD000EF92FF921F93CF93DF93EC017C0188E1AB
:100AE000E80EF11C6E01A8E5CA0ED11C1701C10168
:100AF0000E94AD04B8E02B0E311C2C143D04B9F754
:100B0000CE010E94BD04CE0108960E94BD046E0174
:100B1000E0E1CE0ED11CC6010E94BD0400004E01D2
:100B2000F0E58F0E911CD4011596ED91FC9116976E
:100B3000508017968C91152D182309F010E85E014E
:100B4000B8E4AB0EB11CD5011596ED91FC9116974A
:100B5000808117969C91892309F010643E01B0E4CE
:100B60006B0E711CD3011596ED91FC911697808147
:100B700017969C91892309F01062EDADFEAD80813E
:100B80009FAD892309F01061C6010E94C8040000CE
:100B9000C6010E94BD040000D4011596ED91FC91A0
:100BA0001697808117969C91892309F01860D501CA
:100BB0001596ED91FC911697808117969C9189234B
:100BC00009F01460D3011596ED91FC911697808180
:100BD00017969C91892309F01260EDADFEAD8081DE
:100BE0009FAD892309F01160C6010E94C804C701A6
:100BF0000E94A204B8E0EB0EF11CE214F304B9F772
:100C0000812FDF91CF911F91FF90EF90DF90CF90D8
:100C1000BF90AF909F908F907F906F905F903F902C
:100C20002F900895BF92CF92DF92EF92FF920F9391
:100C30001F93CF93DF93EC01FC01E85AFF4F8081B3
:100C400034E0C32ED12C883011F4D12CC12CBC2C13
:100C500010E000E07E0188E1E80EF11CC601800F83
:100C6000911F23E0880F991F2A95E1F78E0D9F1D94
:100C70000E94A2040F5F1F4F8B2D800F883070F3EE
:100C8000CE010E94A204CE0108960E94A204CE01C9
:100C90004096DF91CF911F910F91FF90EF90DF90E1
:100CA000CF90BF900C94A204CF93DF93EC01609699
:100CB000CE010E94BD040000CE01DF91CF910C94C3
:100CC000C804AF92BF92DF92EF92FF920F931F93EF
:100CD000CF93DF93EC01D62E042F122F12951F70A5
:100CE0007C0188E3E80EF11C5E0188E5A80EB11CCA
:100CF000612F6170C7010E94D404169588E0E80E48
:100D0000F11CAE14BF04A1F76D2DCE010E94D404D6
:100D1000602FCE0108960E94D404CE01DF91CF91BE
:100D20001F910F91FF90EF90DF90BF90AF900C94C8
:100D30005406CF93DF93EC0183ED90E30197F1F735
:100D400000C0000020E340E060E0CE010E946106A8
:100D500084E694E00197F1F700C0000020E340E052
:100D600060E0CE010E94610684E694E00197F1F70D
:100D700000C0000020E340E060E0CE010E94610678
:100D800092E39A95F1F720E240E060E0CE010E9404
:100D9000610681E28A95F1F7000020E240E060E020
:100DA000CE010E94610620E840E060E0CE010E9492
:100DB000610691E29A95F1F7000020E040E060E0E2
:100DC000CE010E94610620EC40E060E0CE010E946E
:100DD000610681E28A95F1F7000020E040E060E0E2
:100DE000CE010E94610620E140E060E0CE010E9459
:100DF000610691E29A95F1F7000020E040E060E0A2
:100E0000CE010E94610620E640E060E0CE010E9433
:100E1000610681E28A95F1F70000DF91CF91089594
:100E2000CF92DF92FF920F931F93CF93DF93EC014A
:100E3000142FF22E0E94D404612FCE0108960E9436
:100E4000D4048E01085E1F4F6E0188E5C80ED11CC8
:100E50006F2D6170C8010E94D404F694085F1F4F83
:100E6000C016D106A9F7CE01DF91CF911F910F9146
:100E7000FF90DF90CF900C945406AF92BF92CF9228
:100E8000DF92EF92FF920F931F93CF93DF93EC01CA
:100E9000142FD22E0E94D404612FCE0108960E94F6
:100EA000D404CD2CC2948FE0C8228E01085C1F4F61
:100EB0005E0188E5A80EB11C78016C2D6170C70138
:100EC0000E94D404C69488E0E80EF11CAE14BF045E
:100ED000A1F7CE010E9454066D2D6170C8010E94D9
:100EE000D404D694085F1F4FE016F106A9F7CE018F
:100EF000DF91CF911F910F91FF90EF90DF90CF90F6
:100F0000BF90AF900C945406FC01E85AFF4F30811B
:100F1000383011F40C9410070C943D07CF93DF93F5
:100F2000EC0183ED90E30197F1F700C0000020E3AE
:100F300040E060E0CE010E94610684E694E0019703
:100F4000F1F700C0000020E340E060E0CE010E9425
:100F5000610692E39A95F1F720E340E060E0CE016C
:100F60000E94610628E340E060E0CE010E94840711
:100F70002CE040E060E0CE010E94840721E040E0E8
:100F800060E0CE010E94840726E040E060E0CE01F0
:100F9000DF91CF910C948407FC01E85AFF4F208128
:100FA000283011F40C94D9040C940C05CF93DF93E2
:100FB000EC01CE010E94CC078111FBCFDF91CF91D4
:100FC00008950F931F93CF938C01C62F0E94D607CD
:100FD0002C2F206840E060E0C801CF911F910F9155
:100FE0000C9484071F93CF93DF93EC01162F0E947C
:100FF000D607212F40E061E0CE01DF91CF911F9114
:101000000C948407CF93DF93EC010E94D607CE01A6
:10101000DF91CF910C945D05CF93DF93EC01409667
:101020000E94C804FE01E85AFF4F8081883029F4ED
:10103000CE01DF91CF910C948E07CE01DF91CF913D
:101040000C949906CF93DF93EC010E941206CE0117
:10105000DF91CF910C940C08EF92FF920F931F93A6
:10106000CF93DF93EC01E42EF22E0E9481046E2DCB
:10107000CE0108960E9481046F2DCE0140960E94F9
:10108000810460E0CE0148960E94810460E0CE01B8
:1010900080960E94810460E0CE0188960E948104BF
:1010A00060E0CE01C0960E948104F8016081CE010B
:1010B000C8960E948104F8016181CE01805C9F4F37
:1010C0000E948104F8016281CE01885B9F4F0E94DB
:1010D0008104F8016381CE01805B9F4F0E948104EF
:1010E000FE01E85AFF4F84E08083CE01DF91CF916B
:1010F0001F910F91FF90EF900C942208CF93DF93F4
:10110000EC010E94D60721E040E060E0CE01DF91D3
:10111000CF910C948407FC016115710579F013825D
:10112000128280E090E1918380831582148277831C
:10113000668380E2828711861086089581E090E0C0
:1011400093838283EECFFC0186819781892B19F0EE
:101150007383628308956160FBCFFC018085918574
:101160000895CF93DF93EC01E881F9810680F78140
:10117000E02D09958F3F980731F0EC81FD81819139
:1011800090E0FD83EC83DF91CF910895DC0114960C
:10119000ED91FC91159716968D919C911797E817F4
:1011A000F90739F0819190E01596FC93EE9314972E
:1011B0000895ED91FC9111970084F185E02DCD010A
:1011C0000994DC011496ED91FC91159716962D91DA
:1011D0003C911797E217F30719F0808190E008958A
:1011E000ED91FC910680F781E02D0994CF93DF9378
:1011F000EC010E94C608019629F0CE01DF91CF9143
:101200000C94E1088FEF9FEFDF91CF910895DC01FF
:101210001A96ED91FC911B97862F90E01C962D91CC
:101220003C911D97E217F30749F4ED91FC9111975A
:101230000484F585E02DBC01CD01099460831A96E4
:101240002D913C911B972F5F3F4F1B963C932E9304
:101250001A9708950F931F93CF93DF938C01CB01BF
:10126000F80164817581C681D781C61BD70B4C17E5
:101270005D070CF4EA01209719F0AE010E945C0CA6
:10128000F801848195818C0F9D1F95838483CE0105
:10129000DF91CF911F910F910895CF92DF92EF923E
:1012A000FF920F931F93CF93DF937C016B01EA01B1
:1012B00010E000E01C161D06C4F4AE01B601C70123
:1012C0000E942A09C80ED91EC01BD10B080F191F76
:1012D0001C161D067CF7D701ED91FC910680F78165
:1012E000E02DC7010995019629F7C801DF91CF913B
:1012F0001F910F91FF90EF90DF90CF900895FC0128
:1013000022813381622B732B0C94A308603231F05D
:10131000695081E0623018F080E0089581E008951E
:101320000F931F93CF93DF938C01EB01E881F98139
:1013300036970190F081E02DE60FF71F86819781A7
:101340000E94E1088F3F980799F0BC01C8010E94F4
:1013500086098823E1F0E881F98136970190F081D0
:10136000E02DEC0FFD1F868197810E94F608EACFE1
:10137000E881F98136978081918166E070E08C0F79
:101380009D1FDF91CF911F910F910C947F09DF91E9
:10139000CF911F910F910895FF920F931F93CF93B9
:1013A000DF938C01EB01F42EE881F981369780817F
:1013B0009181860F971FFC0122813381232B61F0DD
:1013C00062E070E00E947F09F8011082DF91CF9106
:1013D0001F910F91FF90089521E0F80120830E9452
:1013E000AD08892B59F0E881F98136978081918188
:1013F0008C0F9D1F0E94AD080E94A70AF110E6CF36
:10140000E881F98136970190F081E02DEC0FFD1F06
:101410008081918194FFDACFBE01C801DF91CF9125
:101420001F910F91FF900C949009EF92FF920F93F0
:101430001F93CF93DF931F92CDB7DEB78C0141E0AE
:10144000BC01CE0101960E94CC09D80113961C92D2
:101450001E92129789818823E1F1ED91FC913697D4
:101460000190F081E02DE00FF11F868197810E94AD
:10147000C6087C01019639F5D801ED91FC913697AB
:101480008081918164E070E0800F911F0E947F094C
:10149000D80112968D919C911397892B59F4ED9157
:1014A000FC9136978081918162E070E0800F911FFE
:1014B0000E947F09C7010F90DF91CF911F910F917B
:1014C000FF90EF90089581E090E0F801938382838C
:1014D000DFCFEE24EA94FE2CDBCFCF93DF93EC0139
:1014E000E881F981309781F1A081B18116978D91C2
:1014F0009C91E80FF91F82819381892B29F58081C6
:10150000918195FF21C0868197810097C9F0DC0108
:10151000ED91FC910190F081E02D09950196A1F4E7
:10152000A881B981ED91FC911197369780819181C5
:1015300062E070E08A0F9B1FDF91CF910C947F09CE
:1015400061E070E0CF01F8CFDF91CF9108950F9364
:101550001F93CF93DF9300D0CDB7DEB78C01BC01D2
:10156000CE0101960E94E40A89819A81892B01F1BA
:10157000D801ED91FC9136970190F081E02DE00FBC
:10158000F11F86819781DC01ED91FC910190F08142
:10159000E02D0995019661F4D801ED91FC91369703
:1015A0008081918161E070E0800F911F0E947F092E
:1015B000CE0101960E946D0AC8010F900F90DF9135
:1015C000CF911F910F9108950F931F93CF93DF93A6
:1015D0008C01EB01E881F981369780819181860F3A
:1015E000971FFC0122813381232B59F0F8011182CE
:1015F000108262E070E0DF91CF911F910F910C9407
:101600007F0926813781232B31F4F8011182108262
:1016100061E070E0F0CF0E94AD08892B59F0E881BD
:10162000F9813697808191818C0F9D1F0E94AD08B2
:101630000E94A70AF801D183C083DF91CF911F9147
:101640000F910895EF92FF920F931F93CF93DF9323
:10165000EC017B0110E000E00E151F052CF5E88180
:10166000F98136970190F081E02DEC0FFD1F628526
:10167000868197810E940709019699F4E881F98192
:1016800036978081918161E070E08C0F9D1F0E94F0
:101690007F0980E0DF91CF911F910F91FF90EF9034
:1016A00008950F5F1F4FD8CF81E0F4CF0F931F93A2
:1016B000CF93DF93EC018B01F80161918F016623D9
:1016C000F9F0E881F98136970190F081E02DEC0F77
:1016D000FD1F868197810E940709019669F7E881BD
:1016E000F98136978081918161E070E08C0F9D1FB8
:1016F0000E947F0980E0DF91CF911F910F910895A3
:1017000081E0F9CF0F931F93CF93DF93EC018B010F
:101710000E94560B8823F1F0F80101900020E9F7B0
:101720003197E01BF10BA881B98116970D90BC9100
:10173000A02DAC0FBD1F14966D917C91E617F70795
:101740004CF46E1B7F0BCE01DF91CF911F910F9157
:101750000C94220BDF91CF911F910F9108950F935D
:101760001F93CF93DF93EC018B01FB0101900020CD
:10177000E9F73197E61BF70BA881B98116970D9011
:10178000BC91A02DA80FB91F14966D917C91E617FE
:10179000F70744F0B801CE01DF91CF911F910F916F
:1017A0000C94560B6E1B7F0B0E94220B8111F2CF03
:1017B000DF91CF911F910F910895CF93DF93EC01AB
:1017C000E881F98136970190F081E02DE80FF91F4B
:1017D00084819581892B29F4CE01DF91CF910C94DE
:1017E000560B80819181807B9927809779F4CE0177
:1017F0000E94820BE881F981369780819181C80F20
:10180000D91F1D821C82DF91CF910895CE010E94C5
:10181000AF0BF0CFFF920F931F93CF93DF9300D0C6
:1018200000D0CDB7DEB78C01F62EBC01CE010396F9
:101830000E94E40A8B819C81892B49F01A821982CB
:10184000F982BE016F5F7F4FC8010E94DD0BCE01A0
:1018500003960E946D0AC8010F900F900F900F9091
:10186000DF91CF911F910F91FF900895EF92FF921A
:101870000F931F93CF93DF9300D0CDB7DEB78C01CA
:101880007B01BC01CE0101960E94E40A89819A8104
:10189000892B21F0B701C8010E94DD0BCE01019612
:1018A0000E946D0AC8010F900F90DF91CF911F9198
:1018B0000F91FF90EF900895FB01DC0102C00190B1
:0E18C0000D9241505040D8F70895F894FFCF94
:1018CE000B0C0D0E4573706572616E646F0A001716
:1018DE00010200000000001F0104000000000002D1
:1018EE00000000000006000000000039012B012559
:1018FE00013F010600000000000200FCFF00000096
:10190E0000000057005A009800840072005D00C667
:10191E0000D900140000000000180000000000189C
:10192E0000000000001400FCFF00007D0165015F57
:10193E000159016B0183011800000000001400FC26
:10194E00FF0000000000004B004E004D095100B199
:10195E00085400080431046D0000000000A7019D2A
:10196E00016D00000000000040010204081000009C
:10197E004080204080010204081020000000010277
:10198E000408102000002600290029002900290043
:10199E00290000000000230023002900290029004F
:1019AE002300230023002300230023000000000057
:1019BE000000260026002600260026002600000035
:1019CE0028002B002B002B002B002B00000000000A
:1019DE00250025002B002B002B00250025002500BF
:1019EE00250025002500000000000000280028002A
:1019FE002800280028002800000027002A002A00BE
:101A0E002A002A002A0000000000240024002A00D8
:101A1E002A002A002400240024002400240024008C
:101A2E0000000000000027002700270027002700E5
:021A3E0027007F
:00000001FF
